{
  "contractName": "CredentialVerification",
  "abi": [
    {
      "anonymous": false,
      "inputs": [
        {
          "indexed": false,
          "internalType": "string",
          "name": "name",
          "type": "string"
        },
        {
          "indexed": false,
          "internalType": "address",
          "name": "issuer",
          "type": "address"
        },
        {
          "indexed": false,
          "internalType": "bool",
          "name": "verified",
          "type": "bool"
        }
      ],
      "name": "CredentialAdded",
      "type": "event"
    },
    {
      "inputs": [
        {
          "internalType": "address",
          "name": "",
          "type": "address"
        },
        {
          "internalType": "uint256",
          "name": "",
          "type": "uint256"
        }
      ],
      "name": "credentials",
      "outputs": [
        {
          "internalType": "string",
          "name": "name",
          "type": "string"
        },
        {
          "internalType": "address",
          "name": "issuer",
          "type": "address"
        },
        {
          "internalType": "bool",
          "name": "verified",
          "type": "bool"
        }
      ],
      "stateMutability": "view",
      "type": "function",
      "constant": true
    },
    {
      "inputs": [
        {
          "internalType": "address",
          "name": "_entity",
          "type": "address"
        },
        {
          "internalType": "string",
          "name": "_name",
          "type": "string"
        }
      ],
      "name": "credentialExists",
      "outputs": [
        {
          "internalType": "bool",
          "name": "",
          "type": "bool"
        }
      ],
      "stateMutability": "view",
      "type": "function",
      "constant": true
    },
    {
      "inputs": [
        {
          "internalType": "address",
          "name": "_entity",
          "type": "address"
        },
        {
          "internalType": "string",
          "name": "_name",
          "type": "string"
        }
      ],
      "name": "getCredentialByName",
      "outputs": [
        {
          "internalType": "string",
          "name": "",
          "type": "string"
        },
        {
          "internalType": "address",
          "name": "",
          "type": "address"
        },
        {
          "internalType": "bool",
          "name": "",
          "type": "bool"
        }
      ],
      "stateMutability": "view",
      "type": "function",
      "constant": true
    },
    {
      "inputs": [
        {
          "internalType": "string",
          "name": "_name",
          "type": "string"
        }
      ],
      "name": "addCredential",
      "outputs": [],
      "stateMutability": "nonpayable",
      "type": "function"
    },
    {
      "inputs": [
        {
          "internalType": "address",
          "name": "_entity",
          "type": "address"
        },
        {
          "internalType": "uint256",
          "name": "_index",
          "type": "uint256"
        }
      ],
      "name": "verifyCredential",
      "outputs": [],
      "stateMutability": "nonpayable",
      "type": "function"
    }
  ],
  "bytecode": "0x608060405234801561001057600080fd5b5061107c806100206000396000f3fe608060405234801561001057600080fd5b50600436106100575760003560e01c806303cb278a1461005c5780631330b61b1461008e578063218e9fe4146100aa57806325a14b7f146100c6578063ef5e70e1146100f6575b600080fd5b61007660048036038101906100719190610a56565b610128565b60405161008593929190610b59565b60405180910390f35b6100a860048036038101906100a39190610a56565b610224565b005b6100c460048036038101906100bf9190610ccc565b610391565b005b6100e060048036038101906100db9190610d15565b6104fa565b6040516100ed9190610d71565b60405180910390f35b610110600480360381019061010b9190610d15565b6105f7565b60405161011f93929190610b59565b60405180910390f35b6000602052816000526040600020818154811061014457600080fd5b90600052602060002090600202016000915091505080600001805461016890610dbb565b80601f016020809104026020016040519081016040528092919081815260200182805461019490610dbb565b80156101e15780601f106101b6576101008083540402835291602001916101e1565b820191906000526020600020905b8154815290600101906020018083116101c457829003601f168201915b5050505050908060010160009054906101000a900473ffffffffffffffffffffffffffffffffffffffff16908060010160149054906101000a900460ff16905083565b6000808373ffffffffffffffffffffffffffffffffffffffff1673ffffffffffffffffffffffffffffffffffffffff168152602001908152602001600020818154811061027457610273610dec565b5b906000526020600020906002020160010160009054906101000a900473ffffffffffffffffffffffffffffffffffffffff1673ffffffffffffffffffffffffffffffffffffffff163373ffffffffffffffffffffffffffffffffffffffff1614610313576040517f08c379a000000000000000000000000000000000000000000000000000000000815260040161030a90610e8d565b60405180910390fd5b60016000808473ffffffffffffffffffffffffffffffffffffffff1673ffffffffffffffffffffffffffffffffffffffff168152602001908152602001600020828154811061036557610364610dec565b5b906000526020600020906002020160010160146101000a81548160ff0219169083151502179055505050565b600060405180606001604052808381526020013373ffffffffffffffffffffffffffffffffffffffff1681526020016001151581525090506000803373ffffffffffffffffffffffffffffffffffffffff1673ffffffffffffffffffffffffffffffffffffffff168152602001908152602001600020819080600181540180825580915050600190039060005260206000209060020201600090919091909150600082015181600001908051906020019061044d92919061090b565b5060208201518160010160006101000a81548173ffffffffffffffffffffffffffffffffffffffff021916908373ffffffffffffffffffffffffffffffffffffffff16021790555060408201518160010160146101000a81548160ff02191690831515021790555050507ff2d6d2e31eb2c1cd21579b62782d858bb6281ee08c7ac9dd03293925dc628921823383604001516040516104ee93929190610b59565b60405180910390a15050565b600080600090505b6000808573ffffffffffffffffffffffffffffffffffffffff1673ffffffffffffffffffffffffffffffffffffffff168152602001908152602001600020805490508110156105eb5782805190602001206000808673ffffffffffffffffffffffffffffffffffffffff1673ffffffffffffffffffffffffffffffffffffffff16815260200190815260200160002082815481106105a3576105a2610dec565b5b90600052602060002090600202016000016040516105c19190610f4c565b6040518091039020036105d85760019150506105f1565b80806105e390610f92565b915050610502565b50600090505b92915050565b606060008060005b6000808773ffffffffffffffffffffffffffffffffffffffff1673ffffffffffffffffffffffffffffffffffffffff168152602001908152602001600020805490508110156108c85784805190602001206000808873ffffffffffffffffffffffffffffffffffffffff1673ffffffffffffffffffffffffffffffffffffffff16815260200190815260200160002082815481106106a05761069f610dec565b5b90600052602060002090600202016000016040516106be9190610f4c565b6040518091039020036108b5576000808773ffffffffffffffffffffffffffffffffffffffff1673ffffffffffffffffffffffffffffffffffffffff168152602001908152602001600020818154811061071b5761071a610dec565b5b90600052602060002090600202016000016000808873ffffffffffffffffffffffffffffffffffffffff1673ffffffffffffffffffffffffffffffffffffffff168152602001908152602001600020828154811061077c5761077b610dec565b5b906000526020600020906002020160010160009054906101000a900473ffffffffffffffffffffffffffffffffffffffff166000808973ffffffffffffffffffffffffffffffffffffffff1673ffffffffffffffffffffffffffffffffffffffff16815260200190815260200160002083815481106107fe576107fd610dec565b5b906000526020600020906002020160010160149054906101000a900460ff1682805461082990610dbb565b80601f016020809104026020016040519081016040528092919081815260200182805461085590610dbb565b80156108a25780601f10610877576101008083540402835291602001916108a2565b820191906000526020600020905b81548152906001019060200180831161088557829003601f168201915b5050505050925093509350935050610904565b80806108c090610f92565b9150506105ff565b506040517f08c379a00000000000000000000000000000000000000000000000000000000081526004016108fb90611026565b60405180910390fd5b9250925092565b82805461091790610dbb565b90600052602060002090601f0160209004810192826109395760008555610980565b82601f1061095257805160ff1916838001178555610980565b82800160010185558215610980579182015b8281111561097f578251825591602001919060010190610964565b5b50905061098d9190610991565b5090565b5b808211156109aa576000816000905550600101610992565b5090565b6000604051905090565b600080fd5b600080fd5b600073ffffffffffffffffffffffffffffffffffffffff82169050919050565b60006109ed826109c2565b9050919050565b6109fd816109e2565b8114610a0857600080fd5b50565b600081359050610a1a816109f4565b92915050565b6000819050919050565b610a3381610a20565b8114610a3e57600080fd5b50565b600081359050610a5081610a2a565b92915050565b60008060408385031215610a6d57610a6c6109b8565b5b6000610a7b85828601610a0b565b9250506020610a8c85828601610a41565b9150509250929050565b600081519050919050565b600082825260208201905092915050565b60005b83811015610ad0578082015181840152602081019050610ab5565b83811115610adf576000848401525b50505050565b6000601f19601f8301169050919050565b6000610b0182610a96565b610b0b8185610aa1565b9350610b1b818560208601610ab2565b610b2481610ae5565b840191505092915050565b610b38816109e2565b82525050565b60008115159050919050565b610b5381610b3e565b82525050565b60006060820190508181036000830152610b738186610af6565b9050610b826020830185610b2f565b610b8f6040830184610b4a565b949350505050565b600080fd5b600080fd5b7f4e487b7100000000000000000000000000000000000000000000000000000000600052604160045260246000fd5b610bd982610ae5565b810181811067ffffffffffffffff82111715610bf857610bf7610ba1565b5b80604052505050565b6000610c0b6109ae565b9050610c178282610bd0565b919050565b600067ffffffffffffffff821115610c3757610c36610ba1565b5b610c4082610ae5565b9050602081019050919050565b82818337600083830152505050565b6000610c6f610c6a84610c1c565b610c01565b905082815260208101848484011115610c8b57610c8a610b9c565b5b610c96848285610c4d565b509392505050565b600082601f830112610cb357610cb2610b97565b5b8135610cc3848260208601610c5c565b91505092915050565b600060208284031215610ce257610ce16109b8565b5b600082013567ffffffffffffffff811115610d0057610cff6109bd565b5b610d0c84828501610c9e565b91505092915050565b60008060408385031215610d2c57610d2b6109b8565b5b6000610d3a85828601610a0b565b925050602083013567ffffffffffffffff811115610d5b57610d5a6109bd565b5b610d6785828601610c9e565b9150509250929050565b6000602082019050610d866000830184610b4a565b92915050565b7f4e487b7100000000000000000000000000000000000000000000000000000000600052602260045260246000fd5b60006002820490506001821680610dd357607f821691505b602082108103610de657610de5610d8c565b5b50919050565b7f4e487b7100000000000000000000000000000000000000000000000000000000600052603260045260246000fd5b7f4f6e6c7920746865206973737565722063616e2076657269667920637265646560008201527f6e7469616c730000000000000000000000000000000000000000000000000000602082015250565b6000610e77602683610aa1565b9150610e8282610e1b565b604082019050919050565b60006020820190508181036000830152610ea681610e6a565b9050919050565b600081905092915050565b60008190508160005260206000209050919050565b60008154610eda81610dbb565b610ee48186610ead565b94506001821660008114610eff5760018114610f1057610f43565b60ff19831686528186019350610f43565b610f1985610eb8565b60005b83811015610f3b57815481890152600182019150602081019050610f1c565b838801955050505b50505092915050565b6000610f588284610ecd565b915081905092915050565b7f4e487b7100000000000000000000000000000000000000000000000000000000600052601160045260246000fd5b6000610f9d82610a20565b91507fffffffffffffffffffffffffffffffffffffffffffffffffffffffffffffffff8203610fcf57610fce610f63565b5b600182019050919050565b7f43726564656e7469616c206e6f7420666f756e64000000000000000000000000600082015250565b6000611010601483610aa1565b915061101b82610fda565b602082019050919050565b6000602082019050818103600083015261103f81611003565b905091905056fea2646970667358221220f5369593e12bbe012cfdd778ac8f2e6025da433adc2901b4ae8edc88f3e699c464736f6c634300080d0033",
  "immutableReferences": {},
  "source": "// SPDX-License-Identifier: MIT\r\npragma solidity ^0.8.13;\r\n\r\ncontract CredentialVerification {\r\n    event CredentialAdded(string name, address issuer, bool verified);\r\n\r\n    struct Credential {\r\n        string name;\r\n        address issuer;\r\n        bool verified;\r\n    }\r\n\r\n    mapping(address => Credential[]) public credentials;\r\n\r\n    // Function to check if a credential with a specific name exists\r\n    function credentialExists(address _entity, string memory _name) public view returns (bool) {\r\n        for (uint256 i = 0; i < credentials[_entity].length; i++) {\r\n            if (keccak256(bytes(credentials[_entity][i].name)) == keccak256(bytes(_name))) {\r\n                return true;\r\n            }\r\n        }\r\n        return false;\r\n    }\r\n\r\n    // Function to get a credential by name\r\n    function getCredentialByName(address _entity, string memory _name) public view returns (string memory, address, bool) {\r\n        for (uint256 i = 0; i < credentials[_entity].length; i++) {\r\n            if (keccak256(bytes(credentials[_entity][i].name)) == keccak256(bytes(_name))) {\r\n                return (credentials[_entity][i].name, credentials[_entity][i].issuer, credentials[_entity][i].verified);\r\n            }\r\n        }\r\n        revert(\"Credential not found\");\r\n    }\r\n\r\n\r\n    function addCredential(string memory _name) public {\r\n        Credential memory newCredential = Credential(_name, msg.sender, true);\r\n        credentials[msg.sender].push(newCredential);\r\n        emit CredentialAdded(_name, msg.sender, newCredential.verified);\r\n    }\r\n\r\n    function verifyCredential(address _entity, uint256 _index) public {\r\n        require(msg.sender == credentials[_entity][_index].issuer, \"Only the issuer can verify credentials\");\r\n        credentials[_entity][_index].verified = true;\r\n    }\r\n\r\n    \r\n}\r\n",
  "sourcePath": "C:\\Users\\guddu\\OneDrive\\Documents\\finalbcproject\\contracts\\CredentialVerification.sol",
  "compiler": {
    "name": "solc",
    "version": "0.8.13+commit.abaa5c0e.Emscripten.clang"
  },
  "schemaVersion": "3.4.16",
  "updatedAt": "2023-11-28T18:20:24.620Z",
  "networkType": "ethereum",
  "devdoc": {
    "kind": "dev",
    "methods": {},
    "version": 1
  },
  "userdoc": {
    "kind": "user",
    "methods": {},
    "version": 1
  }
}